:020000040800F2
:100000000030002099140008E1140008E1140008F1
:10001000E1140008E1140008E114000800000000E9
:10002000000000000000000000000000E1140008D3
:10003000E114000800000000E1140008E1140008C9
:1000400000000000000000000000000000000000B0
:1000500000000000000000000000000000000000A0
:100060000000000000000000000000000000000090
:100070000000000000000000000000000000000080
:100080000000000000000000000000000000000070
:100090000000000000000000000000000000000060
:1000A0000000000000000000000000000000000050
:1000B0000000000000000000000000000000000040
:1000C0000000000000000000000000000000000030
:1000D0000000000000000000000000000000000020
:1000E0000000000000000000000000000000000010
:1000F0000000000000000000000000000000000000
:1001000000000000000000000000000000000000EF
:1001100000000000000000000000000000000000DF
:1001200000000000000000000000000000000000CF
:1001300000000000000000000000000000000000BF
:1001400000000000000000000000000000000000AF
:10015000000000000000000000000000000000009F
:10016000000000000000000000000000000000008F
:10017000000000000000000000000000000000007F
:08018000000000000000000077
:1001880010B5054C237833B9044B13B10448AFF3C9
:1001980000800123237010BD0C0000200000000027
:1001A8002C15000808B5034B1BB103490348AFF3EE
:1001B800008008BD00000000100000202C15000879
:1001C80030B585B0044600F0F9FA1749621E0123DC
:1001D800083412F8015F11F8010B854218BF00239B
:1001E800A242F6D142F6AA32009200220192019A66
:1001F800042A0DDD3BB142F6AA3302930023039390
:10020800039B1D2B0ADD00F0E0FA002005B030BD8D
:10021800009A52000092019A0132E7E7029B5B00C4
:100228000293039B0133EAE70000002013B5002482
:10023800019400F0C3FAADF80040BDF800309BB25D
:10024800312B0ED900F0C1FA01AA0421722000F066
:1002580055F9019840F6C413C01A18BF012002B01E
:1002680010BDADF80240BDF802309BB2312B06D963
:10027800BDF8003001339BB2ADF80030DDE7019BDB
:1002880001330193BDF8023001339BB2ADF802305F
:10029800E9E713B5044605238DF8073000F08EFA18
:1002A8002378A3F1A202534253418DF8073000F09E
:1002B8008CFA0DF107020121722000F01FF90020CD
:1002C80002B010BD07B5012000F0BCFA002000F014
:1002D800ADFA00238DF8073000F070FA00F075FAD7
:1002E8009DF80730022BFBD1012000F09FFA012076
:1002F80000F09CFA012000F099FA012000F096FA2B
:10030800012000F093FA012000F090FA012000F09B
:100318008DFA012000F08AFA012000F087FA722095
:1003280000F074FA422000F071FA522000F06EFAE0
:10033800452000F06BFA412000F068FA4B2000F0ED
:1003480065FA4F2000F062FA552000F05FFA542059
:1003580000F05CFA0A2000F059FA012000F066FA71
:10036800012000F063FA012000F060FA012000F09B
:100378005DFA012000F05AFA012000F057FA012036
:1003880000F054FA012000F051FA002003B05DF8A3
:1003980004FB000008B500F06FF900F0ADF900F0BB
:1003A800E9F9722000F032FA522000F02FFA4520C5
:1003B80000F02CFA532000F029FA452000F026FA24
:1003C800542000F023FA202000F020FA202000F02A
:1003D8001DFA202000F01AFA0A2000F017FA00F09F
:1003E80077F80B4A0021672000F06EF8094A0121CE
:1003F800632000F069F8084A0921702000F064F8C9
:10040800064A0021692000F05FF800F0D1F8FCE707
:10041800350200089B020008C9010008CD02000847
:1004280001207047F0B500254F1C854201DB0020F4
:1004380021E017F8154011F81530A4F13006F6B28E
:10044800092E0CD81670A3F13004E6B2092E15D87F
:10045800137843EA0413137001350132E5E7A4F178
:100468004106052E02D8373C1470ECE7A4F161066A
:10047800052E01D90120F0BD573CF5E7A3F1410451
:10048800052C02D8A3F13704E2E7A3F16104052C97
:10049800F0D81478573B44EA0313DCE770B5094EEB
:1004A80034680F2C0BDCBF2909D806EB0415C5E905
:1004B8000212013428712B743460002070BD0120B1
:1004C800FCE700BF280000200023FFF7E7BF00007B
:1004D80008B5074A00217620FFF7F6FF054A77207E
:1004E800FFF7F2FFBDE80840034A7920FFF7ECBFA9
:1004F800290400086905000845050008F8B51446F0
:100508000E4600F083F90C4F651EC4F1010463190F
:100518009E4204DCBDE8F8400A2000F077B915F8DF
:10052800013F1B09F85C00F071F92B7803F00F0309
:10053800F85C00F06BF9EAE74415000807B5074BCB
:100548000DF107021B688DF8073001217220FFF7B3
:10055800D5FF002003B05DF804FB00BF2800002091
:1005680070B5124C21688CB0CDB20020C3B2AB423A
:1005780000F1010009DB01EB41016A46C9B27220B2
:10058800FFF7BCFF00200CB070BD03EB43020CAEBC
:1005980004EB031332441E7902F8306C9E681B7C0E
:1005A80002F82F6C02F82E3CE0E700BF280000207C
:1005B8002DE9F0412F4DADF5127D00F00DF92A46D9
:1005C800002352F8041B994204DC07D10DF5127D73
:1005D800BDE8F0811C01A45C84423ED105EB031404
:1005E8001E01237CDB0714D500238DF8083000F0AA
:1005F800F3F88DF8C80000F0EFF802AA8DF8C900EA
:1006080032A90120FFF70EFF0028DFD19DF808303E
:10061800A36032AF002405EB0608D8F80830B4EB25
:10062800430F1CD300F0D8F80A2801D00D28CDD1EB
:10063800354402AAAC6832A92046FFF7F3FE002829
:10064800C4D1E1B2EB6802A8984701AA8DF804006A
:1006580001217A20FFF752FFB8E70133B3E700F032
:10066800BBF80A28B2D00D28B0D007F8010B013426
:10067800D3E700BF2800002070B596B000240326F9
:100688004FF4A0230CA80125CDE90C631094149411
:1006980000F0ECF80F23214602A8CDE90235CDE998
:1006A8000444069400F04AFB114B5A6942F40022B4
:1006B8005A615B69CDE9094603F400230D4C0193A7
:1006C800019B07A94FF4C0432046CDE9073500F048
:1006D800DBFB2A4620464FF4005100F099FC2A46DD
:1006E8004FF48041204600F093FC16B070BD00BF67
:1006F800001002400008004810B54FF4C06288B0EE
:100708000223CDE9032301210323CDE90513164C68
:1007180007230793636943F400336361636903F450
:100728000033019303A94FF09040019B00F0ACFB0C
:100738000E48DFF83CC04FF41643C0E900C300235D
:10074800C0E90233036183610C234361A36943F465
:100758008043A361A36903F480430293029B00F0E2
:10076800ABFD08B010BD00BF001002402C010020F6
:1007780000380140104B30B55A6942F400325A61D2
:100788005B6987B003F400330093009B4FF48054F7
:100798000123CDE901430025032301A94FF090402F
:1007A800CDE9035300F070FB2A4621464FF09040F4
:1007B80000F02EFC07B030BD0010024001224FF4BB
:1007C80080514FF0904000F023BC00224FF480513C
:1007D8004FF0904000F01CBC37B50A4D0A4C41F26E
:1007E800883301220DF10701284600F0E6FD18B90B
:1007F8009DF8070003B030BD236A43F00803236265
:10080800EDE700BF2C0100200038014007B541F298
:1008180088338DF8070001220DF10701024800F026
:1008280076FD03B05DF804FB2C01002028B10022FE
:1008380003484FF4005100F0EBBB0122F8E700BF7A
:100848000008004828B1002203484FF4804100F016
:10085800DFBB0122F8E700BF00080048024B186818
:10086800421C1A60704700BF9C01002003682DE9F4
:10087800F341D907044611D423689A0700F186800A
:1008880023681E0700F1F48023685D0700F14081AA
:10089800E269002A40F0CB81002021E09A494B68A8
:1008A80003F00C03042B07D04B6803F00C03082B50
:1008B80019D14B68DB0316D54FF4003393FAA3F232
:1008C800096893FAA3F3B3FA83F303F01F03012231
:1008D80002FA03F30B42CFD06368002BCCD101207E
:1008E80002B0BDE8F0816268B2F5803F24D10B68A0
:1008F80043F480330B60CB6AA06823F00F030343F3
:10090800CB624AB3FFF7AAFF4FF40036054601272A
:1009180096FAA6F30A6896FAA6F3B3FA83F303F0F5
:100928001F0307FA03F31342A6D1FFF797FF431BF0
:10093800642BEDD90320D3E70B6832B923F4803355
:100948000B600B6823F48023D4E7B2F5A02FF5D110
:1009580043F480230B60CAE7FFF780FF4FF40036AB
:100968000546012796FAA6F30A6896FAA6F3B3FA9B
:1009780083F303F01F0307FA03F313423FF47CAF3A
:10098800FFF76CFF431B642BECD9D3E75E494B6838
:1009980013F00C0F07D04B6803F00C03082B21D180
:1009A8004B68DF031ED4022393FAA3F2086893FA74
:1009B800A3F3B3FA83F303F01F03012202FA03F34C
:1009C800034202D02369934289D10868F82393FA35
:1009D800A3F3B3FA83F26369934020F0F802134358
:1009E8000B604DE72269012502B395FAA5F3B3FA26
:1009F80083F303F1845303F584139B0002271D60DE
:100A0800FFF72CFF064697FAA7F30A6897FAA7F3A9
:100A1800B3FA83F303F01F0305FA03F31342D4D1A7
:100A2800FFF71CFF831B022BEDD983E795FAA5F38B
:100A3800B3FA83F303F1845303F584139B0002276D
:100A48001A60FFF70BFF064697FAA7F30A6897FAAA
:100A5800A7F3B3FA83F303F01F0305FA03F3134272
:100A68003FF40EAFFFF7FAFE831B022BECD961E7C8
:100A7800A269254D2548012112B391FAA1F3B3FAD1
:100A880083F303449B0002261960FFF7E7FE07463D
:100A980096FAA6F396FAA6F396FAA6F36A6A96FA6F
:100AA800A6F3B3FA83F303F01F0301FA03F3134227
:100AB8007FF4EAAEFFF7D2FEC31B022BE8D939E771
:100AC80091FAA1F3B3FA83F303449B0002261A6058
:100AD800FFF7C4FE074696FAA6F396FAA6F396FA27
:100AE800A6F36A6A96FAA6F3B3FA83F303F01F0330
:100AF80001FA03F313423FF4C7AEFFF7AFFEC31B7F
:100B0800022BE8D916E700BF0010024020819010A0
:100B18008849CB69D80033D4CB6943F08053CB6183
:100B2800CB6903F080530193019B0125824E336802
:100B3800DA0527D5E368012B34D10B6A43F00103AA
:100B48000B62FFF78BFE022607464FF0010896FA64
:100B5800A6F396FAA6F3002B61D00A6A96FAA6F3D2
:100B6800B3FA83F303F01F0308FA03F313424ED0DA
:100B7800002D3FF48DAECB6923F08053CB6187E61F
:100B88000025D3E7336843F480733360FFF766FECC
:100B980007463368DB05CDD4FFF760FEC01B642829
:100BA800F7D9C7E62BBB0B6A23F001030B620B6A6C
:100BB80023F004030B62FFF751FE022607464FF0AD
:100BC800010896FAA6F396FAA6F363B30A6A96FAA8
:100BD800A6F3B3FA83F303F01F0308FA03F31342EF
:100BE800C6D0FFF73BFE41F28833C01B9842E8D9D4
:100BF800A0E6052B0B6A03D143F004030B629CE7C4
:100C080023F001030B620B6A23F0040398E7FFF754
:100C180025FE41F28833C01B984298D98AE696FA95
:100C2800A6F34A6A9AE796FAA6F34A6ACFE74149D1
:100C38004B6803F00C03082B3FF451AE022A4FF027
:100C4800807351D193FAA3F3B3FA83F303F1845376
:100C580003F584139B0000221A60FFF7FFFD4FF095
:100C680000770646012597FAA7F30A6897FAA7F3CB
:100C7800B3FA83F303F01F0305FA03F313422DD1EC
:100C8800D4E908034A68034322F4741213434B60FF
:100C98004FF0807393FAA3F3B3FA83F303F1845309
:100CA80003F584139B0001261D60FFF7D7FD4FF065
:100CB8000075044695FAA5F30A6895FAA5F3B3FA00
:100CC80083F303F01F0306FA03F313427FF4E4AD42
:100CD800FFF7C4FD001B0228ECD92BE6FFF7BEFD89
:100CE800831B022BBFD925E693FAA3F3B3FA83F348
:100CF80003F1845303F584139B0000221A60FFF765
:100D0800ADFD4FF000750446012695FAA5F30A6873
:100D180095FAA5F3B3FA83F303F01F0306FA03F376
:100D280013423FF4B9ADFFF799FD001B0228ECD937
:100D380000E600BF0010024000700040504AF8B5BD
:100D4800136803F007038B4204461BD322689007FD
:100D580024D4D2072AD44A4A136803F007038B42E3
:100D68007AD82068430700F1828010F0080014D078
:100D7800444A2169536823F4605343EAC10353602A
:100D880000200AE0136823F007030B43136013687D
:100D980003F007038B42D9D00120F8BD3948A56874
:100DA800436823F0F0032B434360D2E76268354D74
:100DB800012A27D14FF4003393FAA3F0286893FA55
:100DC800A3F3B3FA83F303F01F0302FA03F3034216
:100DD800E2D06B6823F003031A436A60FFF73EFD15
:100DE8006368012B064641F288371ED16B6803F011
:100DF8000C03042BAFD0FFF731FD801BB842F5D9A7
:100E08000320CAE7022A0CBF4FF00073022393FAAB
:100E1800A3F02E6893FAA3F3B3FA83F303F01F0346
:100E2800012000FA03F33342D2E7022B0FD16B689B
:100E380003F00C03082B8ED0FFF710FD801BB8427F
:100E4800F5D9DDE7FFF70AFD801BB842D8D86B68F3
:100E580013F00C0FF6D17EE7136823F007030B435A
:100E68001360136803F007038B4295D179E70549AE
:100E7800E3684A6822F4E0621A434A6075E700BFF3
:100E880000200240001002402DE9F74FDFF874817E
:100E98005D4C00234FF001090A6832FA03F502D1CC
:100EA80003B0BDE8F08F09FA03FA1AEA020200F06B
:100EB8009E804D6825F0100EBEF1020F14D14FEA46
:100EC800D30C00EB8C0C03F0070BDCF820604FEA26
:100ED8008B0B0F2707FA0BF726EA07070E6906FAA6
:100EE8000BF63E43CCF82060D0F800B04FEA430C34
:100EF800032606FA0CF72BEA070BFE4305F0030757
:100F080007FA0CF70EF1FF3E47EA0B07BEF1010F97
:100F1800076011D8876806EA070ECF6807FA0CF74A
:100F280047EA0E078760476827EA0A0AC5F30017E9
:100F38009F4047EA0A074760C76837408E6806FA45
:100F48000CF63E43C660EE0051D5D8F8186046F05E
:100F58000106C8F81860D8F8186023F0030707F1ED
:100F6800804706F0010607F58037019603F0030E67
:100F7800019EBE684FEA8E0E4FF00F0C0CFA0EFC65
:100F8800B0F1904F26EA0C0C33D0204EB04232D04C
:100F980006F58066B04230D006F58066B0422ED0A5
:100FA80006F58066B0420CBF0426052606FA0EF642
:100FB80046EA0C06BE602668D74315F4803F0CBF8E
:100FC8003E4016432660666815F4003F0CBF3E405D
:100FD80016436660A66815F4801F0CBF3E40164392
:100FE800A660E668AD0254BF3E401643E660013392
:100FF80052E70026DAE70126D8E70226D6E70326D5
:10100800D4E700BF0010024000040140000400487B
:101018000AB1816170478162704700000268816887
:10102800C36930B5056914682943456924F4164431
:10103800294324F00C041943214311605168C46802
:10104800056A21F44051214351609468816924F470
:10105800306429432143916062498A4216D101F5DF
:101068005841096B01F003010139022900F2B280ED
:101078005D4CB3F5004F615C77D1082972D8DFE881
:1010880001F0ACAC2471AC717171A40057498A426B
:101098002CD101F5E631096B01F44031B1F5003F7F
:1010A80000F090800BD8002900F09480B1F5803FC3
:1010B80000F09080B3F5004F54D0012015E0B1F551
:1010C800403FF7D1B3F5004F66D141684B0803F1B3
:1010D800F47303F59043B3FBF1F300209BB223F0C4
:1010E8000F01C3F342030B43D36030BD40498A422A
:1010F80010D101F5E431096B01F44021B1F5002F5D
:1011080060D004D8002965D0B1F5802FD0E7B1F5BB
:10111800402FD6E737498A4210D101F5E231096BF1
:1011280001F44011B1F5001F4CD004D8002951D06A
:10113800B1F5801FBCE7B1F5401FC2E72E498A42CE
:10114800B8D101F5E031096B01F44001B1F5000FA8
:1011580038D004D800293DD0B1F5800FA8E7B1F503
:10116800400FAEE701200023B9E70829A5D801A35D
:1011780053F821F0B9110008B9110008A1110008AD
:10118800C3100008B9110008C3100008C3100008F4
:10119800C3100008C311000841684B0803F5740325
:1011A80003F51053B3FBF1F39BB2D36000209CE727
:1011B80041684B0803F5E103F4E741684B0803F580
:1011C8000043EFE7B3F5004FF7D141684B0803F54B
:1011D800803380E7B3F5004FEAD141684B0803F547
:1011E800610378E7003801405415000800440040C6
:1011F80000480040004C004000500040F8B5069FF1
:10120800044615461E462268D36931EA03030CBF1B
:1012180001230023AB4201D0002014E07B1CF3D053
:1012280097B923681A6822F4D0721A609A6822F073
:1012380001029A60202384F8693084F86A30002318
:1012480084F868300320F8BDFFF708FB801BB8421C
:10125800D9D9E6E737B504460021C166FFF7FEFA9B
:1012680023681B681A07054617D423681B685B07A1
:101278000AD56FF07E43009300222B464FF480017D
:101288002046FFF7BBFFA0B92023002084F869306F
:1012980084F8680084F86A300CE06FF07E430093AD
:1012A8000A4603464FF400112046FFF7A7FF00281F
:1012B800DBD0032003B030BD10B5044628B390F846
:1012C800693003F0FF020BB980F8682022682423F4
:1012D80084F86930136823F0010313602046FFF790
:1012E8009DFE012811D023685A6822F490425A6062
:1012F8009A6822F02A029A601A6842F0010220468F
:101308001A60BDE81040FFF7A5BF012010BDF7B572
:101318001E4690F86930202B0D46044611464AD1E6
:10132800002D46D0002A44D090F86830012B42D0D6
:10133800012380F868300023C366212380F86930D0
:10134800FFF78CFAA4F850100746A4F85210B4F826
:10135800522092B262B900963B4640212046FFF7E0
:101368004DFF98B9202384F8693084F868000EE0AE
:10137800B4F852200096013A92B2A4F852203B46A3
:10138800002280212046FFF739FF10B1032003B067
:10139800F0BDA3682268B3F5805F07D123692BB934
:1013A80035F8023BC3F308031385D0E715F8013B72
:1013B800FAE70120EBE70220E9E72DE9F3411E46B1
:1013C80090F86A30202B0D46044611465CD1002D5A
:1013D80058D0002A56D090F86830012B54D00123F9
:1013E80080F8683003684FF0FF321A620023C36642
:1013F800222380F86A30FFF731FAA368A4F858105E
:10140800B3F5805F8046A4F85A1015D123698BB9CB
:1014180040F2FF13A4F85C30B4F85C70B4F85A00DA
:1014280080B280B9202384F86A3084F8680002B05A
:10143800BDE8F081FF23EDE7002BEDD12369002BF8
:10144800F8D07F23E6E7B4F85A200096013A92B222
:10145800A4F85A204346002220212046FFF7CEFE5A
:10146800A0B9A2682368B2F5805F06D1226922B9C3
:101478009B8C3B4025F8023BD0E79B8C3B4005F812
:10148800013BCBE70120D2E70220D0E70320CEE7DB
:10149800002103E00B4B5B58435004310A480B4BC7
:1014A80042189A42F6D30A4A02E000231360043233
:1014B800084B9A42F9D3AFF3008000F00FF8FEF71B
:1014C80069FFFEE760150008000000200C000020FE
:1014D8000C000020A4010020FEE7000070B50D4DAF
:1014E8000D4C641BA4100026A64209D10B4D0C4CD0
:1014F80000F018F8641BA4100026A64205D170BDA0
:1015080055F8043B98470136EEE755F8043B9847F1
:101518000136F2E758150008581500085815000854
:101528005C150008F8B500BFF8BC08BC9E467047BB
:0C153800F8B500BFF8BC08BC9E46704728
:1015440030313233343536373839414243444546F5
:041554000408020085
:04155800AD010008D9
:04155C0089010008F9
:0C15600068657866696C656867000000CB
:040000050800149942
:00000001FF
